:020000040800F2
:100000006004002001010008D51600089D150008B5
:10001000A1160008A9020008891C000800000000C1
:10002000000000000000000000000000751700083C
:10003000AB02000800000000411700087717000815
:100040001B0100081B0100081B0100081B01000820
:100050001B0100081B0100081B0100081B01000810
:100060001B0100081B0100081B0100081B01000800
:100070001B0100081B0100081B0100081B010008F0
:100080001B0100081B0100081B0100081B010008E0
:100090001B0100081B0100081B010008C102000829
:1000A0001B0100081B0100081B0100081B010008C0
:1000B0001B0100081B010008000000001B010008D4
:1000C0001B01000800000000000000001B010008E8
:1000D000000000001B0100081B01000800000000D8
:1000E000AD0200081B0100081B010008DFF80CD05E
:1000F00000F0B0F800480047AD1C00086004002084
:100100000648804706480047FEE7FEE7FEE7FEE7B1
:10011000FEE7FEE7FEE7FEE7FEE7FEE7E117000881
:10012000ED000008F0B480EA0102D40F4200B2EB07
:10013000410F02D20246084611464A0042D0C30D82
:10014000DDB2C1F3C752AD1A202D35DAC1F3160165
:1001500041F4000204B15242C5F1200602FA06F150
:100160002A411044B3EBD05F23D0C4B1012DA0EBE2
:10017000C35009DCF0BC4FF0004202EAC352DBB2CC
:1001800000F5000000F038B8400000F1807000EB8E
:10019000C350A0F1807040EAD170490009E04908DD
:1001A00041EAC071A0EBC35000F50000400800EB2D
:1001B000C350F0BC00F017B86142012202EB4101CC
:1001C000001BF6E7F0BC704781F00041AAE780F021
:1001D0000040A7E7C10F80EAE0700844CA079623F1
:1001E000002100F009B80029A8BF7047401C490051
:1001F00008BF20F00100704710B4B0FA80FC00FA8C
:100200000CF050EA010404BF10BC704749B1CCF1B6
:10021000200421FA04F411FA0CF118BF0121214342
:100220000843A3EB0C01CB1D4FEA00614FEA1020FD
:1002300042BF002010BC704700EBC350104400299F
:10024000A4BF10BC7047401C490008BF20F001004B
:1002500010BC7047064C074D06E0E06840F0010313
:1002600094E8070098471034AC42F6D3FFF742FFFA
:10027000141D0008341D000800B501F055FA0948A6
:10028000016841F480510160016821F4005101606E
:10029000016841F400410160016821F4804101607E
:1002A00000BD00000C0C0140FEE7704710B50120B6
:1002B00001F0F8F9BDE810404FF4806000F01EB87E
:1002C00010B5012001F0FAF9BDE810404FF480703C
:1002D00000F014B870B5044600F0D6F90546601C6D
:1002E00002D004480078044400F0CEF9401BA0423C
:1002F000FAD370BD0C00002070470000044910B50F
:100300000A68024202D00860FFF7F6FF10BD000045
:10031000140401402DE9F84FDFF884B20C4605467D
:100320004FF0000958450CD09E48854209D09E48A0
:10033000854206D09D48854203D0CD219CA001F086
:10034000B3FC20680104090C01D0000C03D0CE21BD
:1003500097A001F0A9FC6068F8B101281DD0112810
:100360001BD0022819D0122817D0A049884214D0D7
:100370009F49884211D09F4988420ED09E498842A9
:100380000BD09E49884208D09D49884205D0032859
:1003900003D0CF2186A001F087FC00274FF0010A8F
:1003A00026680AFA07F806EA080646457ED15D4542
:1003B0000CD07C48854209D07B48854206D07B48DA
:1003C000854203D0DD217AA001F06EFC874A616886
:1003D000881A914258D00EDC032977D006DC002918
:1003E00052D0012919D002296CD131E0112921D034
:1003F000122967D13AE0B0F5881F45D006DCB0F588
:10040000803F41D0B0F5801F5CD13DE0B0F5001FCA
:100410003AD0B0F5041F55D136E0E068022807D085
:10042000012805D0032803D0E52161A001F03CFCA0
:10043000E06841E0E068022807D0012805D00328E1
:1004400003D0EC215AA001F02FFCE068001D33E03E
:10045000E068022807D0012805D0032803D0F32143
:1004600053A001F021FCE068083025E0E068022894
:1004700007D0012805D0032803D0FA214CA001F0B1
:1004800013FCE0680C3017E0A068A0B1012815D07B
:10049000022808D040F2071145A001F005FCA06831
:1004A00048B101280AD04FF0080901E072E00DE0E0
:1004B000C5F8148006E00420814603E04FF00809E7
:1004C000C5F81080FF2E04D8294604E04FF0000044
:1004D000F2E705F104014FEA870001D9A0F12000FD
:1004E0000B684FF00F0202FA00FC23EA0C0309FA32
:1004F00000FC43EA0C030B606068C0004AD5414829
:10050000816941F001018161806927F0030100F0F8
:10051000010000903C480B189868B9074FEA117C1D
:1005200002FA0CF290435D4501D100210AE01D4919
:100530008D4201D1012105E01B498D4201D10221EB
:1005400000E0032101FA0CF1014399606068C003E7
:100550002E48016801D5314300E0B1430160606875
:1005600080032B48016801D5314300E0B1430160AD
:100570006068C0022748016801D5314300E0B143FB
:100580000160606880022448016801D5314300E0C1
:10059000B14301607F1C102FFFF402AFBDE8F88F5C
:1005A00000080140000C014000100140001401400F
:1005B0002E2E2F447269766572732F53544D333249
:1005C000463178785F48414C5F4472697665722F96
:1005D0005372632F73746D3332663178785F68615C
:1005E0006C5F6770696F2E630000000000001110DF
:1005F0000000211000003110000012100000221035
:1006000000003210001002400000014000040140D0
:1006100004040140080401400C04014070B5154673
:100620000C00064604D140F2E31108A001F03CFBA7
:1006300045B1012D04D04FF4F27104A001F034FB58
:10064000346170BD2004306170BD00002E2E2F4437
:100650007269766572732F53544D33324631787810
:100660005F48414C5F4472697665722F5372632F05
:1006700073746D3332663178785F68616C5F677070
:10068000696F2E6300000000014880687047000019
:100690000C00002002488168027811448160704794
:1006A0000C000020074810B5016841F010010160FE
:1006B000032000F0F1F8002000F006F800F024F824
:1006C000002010BD0020024070B50D4D04464FF4CF
:1006D0007A712878B1FBF0F00A490968B1FBF0F0B3
:1006E00000F0F5FC48B9102C07D200222146501E1C
:1006F00000F082F800206C6070BD012070BD000029
:100700000C00002018000020214808B5816941F044
:1007100001018161816901F001010091C16941F02C
:100720008051C161C06900F080500090032000F04A
:10073000B3F8002211466FF00B0000F05DF80022C4
:1007400011466FF00A0000F057F8002211466FF0D2
:10075000090000F051F800221146501F00F04CF83B
:1007600000221146101F00F047F800221146901E8B
:1007700000F042F800221146501E00F03DF80548F6
:10078000416821F0E06141F08061416008BD0000F6
:10079000001002400000014010B5040003D5CE2136
:1007A00006A001F081FA04F01F01012088406109D0
:1007B000890001F1E021C1F8000110BD2E2E2F4467
:1007C0007269766572732F53544D3332463178789F
:1007D0005F48414C5F4472697665722F5372632F94
:1007E00073746D3332663178785F68616C5F636F04
:1007F000727465782E63000070B515460C46064687
:10080000102A03D3BA2114A001F04EFA102C03D3FE
:10081000BB2111A001F048FA1E480068C0F3022372
:10082000C3F107022046042A00D90422191D072912
:1008300001D2002300E0DB1E012404FA02F1491E6C
:10084000014099409C40641E2C4021433046BDE845
:10085000704000F040BF00002E2E2F447269766574
:1008600072732F53544D3332463178785F48414C80
:100870005F4472697665722F5372632F73746D33A0
:1008800032663178785F68616C5F636F7274657827
:100890002E6300000CED00E010B5044607280BD0D5
:1008A000062C09D0052C07D0042C05D0032C03D02E
:1008B000A22108A001F0F8F9154904F00702086820
:1008C0004FF6FF03184040EA0220124A1043086026
:1008D00010BD00002E2E2F447269766572732F535F
:1008E000544D3332463178785F48414C5F447269E9
:1008F0007665722F5372632F73746D33326631785D
:10090000785F68616C5F636F727465782E63000056
:100910000CED00E00000FA052DE9F0470E46050059
:1009200004D140F22E3181A001F0BEF92868C10740
:100930000AD1810708D4410706D4000704D440F245
:100940002F317AA001F0B0F946B1012E06D0022E67
:1009500004D04FF44C7175A001F0A6F9DFF80482C1
:10096000D8F8000000F00700B0420CD2D8F8001010
:1009700021F007013143C8F80010D8F8000000F05A
:100980000700B04272D12878774C80071CD5A86840
:10099000A0B1802812D0902810D0A0280ED0B02866
:1009A0000CD0C0280AD0D02808D0E02806D0F028E3
:1009B00004D040F249315DA001F076F96068A96881
:1009C00020F0F000084360602878C00753D06868C2
:1009D00068B1012821D0022822D04FF4547153A0CD
:1009E00001F062F96868012817D0022818D0206841
:1009F0008007002850DA6068696820F00300084327
:100A00006060FFF741FE6968074641F288300129BE
:100A100010D0022981461AD029E020688003E8E737
:100A200020688001E5E700BFFFF72EFEC11B4945A6
:100A300001D918E081466068C0F381000128F3D134
:100A400019E000BFFFF720FEC11B49450BD86068C5
:100A5000C0F381000228F5D10DE000BFFFF714FEBE
:100A6000C11B494503D90320BDE8F08714E0606845
:100A700010F00C0FF2D1D8F80010404601F0070139
:100A8000B1420BD9016821F00701314301600068D0
:100A900000F00700B04201D00120E5E728784FF4CC
:100AA000806640074FF4A0674FF4C0684FF4E069D8
:100AB00014D5E86860B1B0420AD0B84208D04045C9
:100AC00006D0484504D04FF4697118A001F0ECF845
:100AD0006068E96820F4E0600843606028780007F7
:100AE00015D5286960B1B0420AD0B84208D0404557
:100AF00006D0484504D040F2AB310CA001F0D4F848
:100B00006068296920F4605040EAC100606000F02C
:100B100037F86168154AC1F30311515CC8401449A4
:100B200008600020FFF7D0FD00209DE72E2E2F4407
:100B30007269766572732F53544D3332463178782B
:100B40005F48414C5F4472697665722F5372632F20
:100B500073746D3332663178785F68616C5F72638D
:100B6000632E63000020024000100240041D0008B4
:100B7000180000200148006870470000180000209D
:100B800012A185B00FC98DE80F0014A0144A0068A7
:100B900004905168134801F00C03042B10D0082B6B
:100BA0000ED1C1F38343C9031DF803000AD5516870
:100BB00004AAC1F34041515C0A4A5043B0FBF1F032
:100BC00005B0704708494843FAE7000002030405EE
:100BD000060708090A0B0C0D0E0F10100102000089
:100BE0000010024000127A0000093D002DE9F84F84
:100BF000040004D14FF4B871F4A001F055F84FF09F
:100C0000010A4FF000084FF48039FE4EFE4D206877
:100C100060B1C1070DD1810763D401077ED44007BD
:100C20007DD440F27111E9A001F03EF82078C007B0
:100C300054D060684FF4A02740B1484506D0B84270
:100C400004D040F27711E1A001F02EF86868C0F3FB
:100C50008100012807D06868C0F38100022809D10B
:100C60006868C00306D52868800337D56068002807
:100C700076D033E06068484503D1286840F480307E
:100C800009E008B1B8420DD0286820F4803028600F
:100C9000286820F480202860606890B1FFF7F4FC99
:100CA00007460AE0286840F480202860E5E700BF96
:100CB000FFF7EAFCC01B642877D828688003F7D5C3
:100CC0000CE0FFF7E1FC074605E000BFFFF7DCFCA6
:100CD000C01B6428F0D828688003F7D420788007E8
:100CE0004ED5206930B1012804D040F2AB11B7A035
:100CF00000F0DAFF60691F2804D94FF4D671B3A061
:100D000000F0D2FF686810F00C0F0AD06868C0F3DA
:100D1000810002280CD16868C00301E033E06CE078
:100D200006D42868800713D52069012818D10FE060
:100D30002069B0B1C6F800A0FFF7A6FC074604E0A2
:100D4000FFF7A2FCC01B0228B6D828688007F7D599
:100D50002868616920F0F80040EAC10028600FE0CF
:100D600033E1C6F80080FFF78FFC074605E000BFBF
:100D7000FFF78AFCC01B02289ED828688007F7D49A
:100D80002078000736D5A14FA06920B3012806D0EE
:100D90004FF4F6718DA000F087FFA069D8B1C7F8B5
:100DA00000A0FFF771FC074605E052E1FFF76CFC7D
:100DB000C01B02288ED8686A8007F7D594484FF484
:100DC000FA510068B0FBF1F0009000BF0098411E9E
:100DD0000091FAD20EE0C7F80080FFF755FC0746F5
:100DE00005E000BFFFF750FCC01B0228ACD8686AC2
:100DF0008007F7D4207840076CD5E068002740B121
:100E0000012806D0052804D040F21B216FA000F075
:100E10004BFFE869C00008D4E86940F08050E86101
:100E2000E869012700F0805000907A480168C90500
:100E300012D4016841F480710160FFF725FC8346FC
:100E400006E000BFFFF720FCA0EB0B00642893D85E
:100E500070480068C005F5D5E06801280AD008B1DF
:100E6000052811D0286A20F001002862286A20F0A5
:100E7000040002E0286A40F001002862E068A8B19E
:100E8000FFF702FC83460DE0286A40F00400286268
:100E9000F0E700BFFFF7F8FBA0EB0B0141F2883051
:100EA000814287D8286A8007F4D50EE0FFF7ECFB73
:100EB000834607E0FFF7E8FBA0EB0B0141F2883027
:100EC000814293D8286A8007F4D41FB1E86920F0E2
:100ED0008050E861E069002876D0012809D0022816
:100EE00007D040F2B92139A000F0DEFEE069002809
:100EF0006AD06868C0F38100022866D0E0690228E1
:100F000005D0C6F86080FFF7BFFB0446A4E0206A66
:100F100030B1484504D040F2C2212CA000F0C4FEFC
:100F2000606A70B3B0F5802F2BD0B0F5002F28D0B9
:100F3000B0F5402F25D0B0F5801F22D0B0F5A01F0E
:100F40001FD0B0F5C01F1CD0B0F5E01F19D0B0F510
:100F5000001F16D0B0F5101F13D0B0F5201F10D011
:100F6000B0F5301F0DD0B0F5401F0AD0B0F5501FBE
:100F700007D0B0F5601F04D040F2C32113A000F0E9
:100F800093FEC6F86080FFF77FFB074605E000BFD1
:100F9000FFF77AFBC01B02285BD828688001F7D4D2
:100FA000206A48450FD1A06838B1B0F5003F04D0A1
:100FB00040F2D92105A000F077FE6868A16820F40E
:100FC00000300843686027E049E04AE02E2E2F44B5
:100FD0007269766572732F53544D33324631787887
:100FE0005F48414C5F4472697665722F5372632F7C
:100FF00073746D3332663178785F68616C5F7263E9
:10100000632E63000000424200100240800442420E
:101010001800002000700040D4E908010843696806
:1010200021F4741108436860C6F860A0FFF72CFB38
:10103000044604E0FFF728FB001B022809D82868B3
:101040008001F7D50BE000BFFFF71EFB001B022855
:1010500002D90320BDE8F88F28688001F4D400206D
:10106000F8E70120F6E7000010B54FF0E02404286F
:1010700009D020B140F2D91105A000F015FE206979
:1010800020F0040002E0206940F00400206110BD5F
:101090002E2E2F447269766572732F53544D33325E
:1010A000463178785F48414C5F4472697665722FAB
:1010B0005372632F73746D3332663178785F686171
:1010C0006C5F636F727465782E630000704710B5B3
:1010D000401EB0F1807F01D3012010BD4FF0E0240D
:1010E00060610F21601700F0F6FA0020A061072070
:1010F0002061002010BD10B5FFF7E8FF10BD000013
:1011000070B50D4604460068284988420AD0B0F1FF
:10111000804F07D02649884204D04FF4C76125A0EC
:1011200000F0C2FD286890B1102810D020280ED001
:1011300030280CD040280AD0502808D0602806D08B
:10114000702804D040F239611AA000F0ADFD686843
:10115000802805D020B140F23A6116A000F0A4FD2D
:1011600094F83C0001281FD0012084F83C000221A3
:1011700084F83D1021684A6822F070024A602168B4
:101180004A682B681A434A6021688A6822F0800204
:101190008A6021688A686B681A438A6084F83D0017
:1011A000002084F83C0070BD022070BD002C01407E
:1011B000000400402E2E2F447269766572732F53FF
:1011C000544D3332463178785F48414C5F44726900
:1011D0007665722F5372632F73746D333266317874
:1011E000785F68616C5F74696D5F65782E6300007D
:1011F0001FB50068B0F1804F08D106200090022092
:101200000190039069460248FFF784F81FBD000073
:10121000000801402DE9F041044690F83C001646D4
:101220000D4601283BD0012784F83C7066B1042E9E
:101230000AD0082E08D00C2E06D0182E04D040F666
:101240001F415BA000F030FD2868602806D07028A0
:1012500004D04FF4426156A000F026FDA86830B1DA
:10126000022804D040F6214151A000F01DFD28695C
:1012700030B1042804D040F622414DA000F014FD06
:10128000022084F83D00584858494FF080434EB141
:10129000042E26D0082E45D00C2E42D161E002202B
:1012A000BDE8F0812268824208D09A4206D08A4284
:1012B00004D040F62A413EA000F0F6FC2946206802
:1012C00000F02AFB2068816941F0080181612068F3
:1012D000816921F004018161206881692A691143D3
:1012E0001EE02268824208D09A4206D08A4204D088
:1012F00040F639412EA000F0D7FC2946206800F0C6
:1013000071FB2068816941F4006181612068816915
:1013100021F480618161206881692A6941EA0221A2
:1013200081613EE02268824208D09A4206D08A4219
:1013300004D040F648411EA000F0B6FC29462068C3
:1013400000F0BAFB2068C16941F00801C161206862
:10135000C16921F00401C1612068C1692A69114392
:101360001EE02268824208D09A4206D08A4204D007
:1013700040F657410EA000F097FC2946206800F087
:1013800005FC2068C16941F40061C1612068C16940
:1013900021F48061C1612068C1692A6941EA0221A2
:1013A000C16184F83D70002084F83C0078E70000BB
:1013B0002E2E2F447269766572732F53544D33323B
:1013C000463178785F48414C5F4472697665722F88
:1013D0005372632F73746D3332663178785F68614E
:1013E0006C5F74696D2E6300002C014000040040A6
:1013F00010B5040037D02649206888420AD0B0F1E1
:10140000804F07D02349884204D040F2E23122A025
:1014100000F04AFCA06860B110280AD0202808D04B
:10142000402806D0602804D040F2E3311AA000F032
:101430003BFC206950B1B0F5807F07D0B0F5007F4C
:1014400004D04FF4797114A000F02EFCA06930B1E3
:10145000802804D040F2E5310FA000F025FC94F87C
:101460003D0010B107E0012010BD002084F83C00D1
:10147000204600F02DF8022084F83D00211D206850
:1014800000F0D2F9012084F83D00002010BD0000DA
:10149000002C0140000400402E2E2F447269766516
:1014A00072732F53544D3332463178785F48414C34
:1014B0005F4472697665722F5372632F73746D3354
:1014C00032663178785F68616C5F74696D2E630095
:1014D00008B50068B0F1804F08D10548C16941F0F6
:1014E0000101C161C06900F00100009008BD000069
:1014F0000010024070B505460068184E0C46B04218
:1015000006D1BCB1042C15D0082C13D00C2C11D052
:10151000B0F1804F02D01249884206D154B1042C58
:1015200008D0082C06D00C2C04D040F241410DA06C
:1015300000F0BAFB01222146286800F0A3F92868D0
:10154000B04203D1416C41F4004141642868016814
:1015500041F001010160002070BD0000002C01403D
:10156000000400402E2E2F447269766572732F534B
:10157000544D3332463178785F48414C5F4472694C
:101580007665722F5372632F73746D3332663178C0
:10159000785F68616C5F74696D2E6300FEE7000020
:1015A00030B5204885B0816941F0040181618169CD
:1015B00001F004010491816941F0080181618069B1
:1015C000194D00F008004FF2030404900022214658
:1015D0002846FFF723F80120CDE90040002402202F
:1015E000CDE9024069462846FEF794FE4FF4A0601C
:1015F00000900E48CDE9010469460D48FEF78AFEC9
:10160000002211461720FFF7F7F81720FFF7C4F85C
:10161000002211462820FFF7EFF82820FFF7BCF83A
:1016200005B030BD00100240000C01400000111058
:101630000008014010B519488AB04FF080410160A0
:1016400032210024C0E901144FF43471C0E90314BD
:101650008461FFF7CDFE00B1FEE7079407A90F48AC
:101660000894FFF74DFD00B1FEE760200090642074
:10167000CDE901040422694608480494FFF7CAFD35
:1016800000B1FEE7082269460448FFF7C3FD00B138
:10169000FEE70248FFF7ACFD0AB010BD1C000020B9
:1016A000FEE7000010B5FEF795FD034C6168FEF7FC
:1016B00039FD606010BD00000000002010B5FEF78D
:1016C00089FD034C2168FEF72DFD206010BD000050
:1016D0000000002070470907090E002806DA00F014
:1016E0000F0000F1E02080F8141D704700F1E020A9
:1016F00080F80014704700000448016841F00201BE
:101700000160016841F00101016070470C0C01406B
:101710000448016841F001010160016821F0020103
:10172000016070470C0C01400448016841F002015F
:101730000160016821F00101016070470C0C01405B
:101740007047000000B5FFF7E3FF0948016841F466
:1017500000510160016821F480510160016841F489
:1017600080410160016821F40041016000BD00007A
:101770000C0C0140704710B5FEF78CFFBDE810401F
:10178000FFF7B9BC10B590B0022000900120049082
:1017900010200024059007946846FFF727FA00B14F
:1017A000FEE70F20CDE90A040C940D9400210AA84D
:1017B0000E94FFF7B1F800B1FEE7FFF7DBF94FF445
:1017C0007A71B0FBF1F0FFF782FC0420FFF74CFCCC
:1017D00000221146501EFFF70FF810B010BD000098
:1017E0000D48016841F00101016041680B4A114058
:1017F000416001680A4A11400160016821F48021BA
:101800000160416821F4FE0141604FF41F018160D5
:101810000449C00308607047001002400000FFF850
:10182000FFFFF6FE08ED00E070B50268134B144CA4
:101830004FF08046984203D0B04201D0A04203D17D
:1018400022F070054A682A43984203D0B04201D082
:10185000A04203D122F44074CA68224322F08004DB
:101860004A69224302608A68C2620A6882629842B8
:1018700001D1096901630121416170BD002C014062
:101880000004004070B50546134816460C468542D4
:101890000AD0B5F1804F07D01048854204D041F2FC
:1018A000F7410FA000F000FA64B1042C0AD0082C14
:1018B00008D00C2C06D0182C04D041F2F84108A016
:1018C00000F0F2F90120296AA04081432962286AC8
:1018D000A6403043286270BD002C01400004004047
:1018E0002E2E2F447269766572732F53544D333206
:1018F000463178785F48414C5F4472697665722F53
:101900005372632F73746D3332663178785F686118
:101910006C5F74696D2E63002DE9F0410446006A26
:101920000D4620F001002062206A6768A169AE6858
:1019300020F0020021F07302064329681A4841EAA8
:101940000208844228D1E86830B1082804D041F266
:10195000272116A000F0A8F9E86826F0080108433E
:1019600020F00406A869B0F5007F05D020B141F24F
:1019700034210EA000F098F96869B0F5807F05D099
:1019800020B141F2352109A000F08EF927F4407111
:101990006869AF69084307436760C4F818806868DE
:1019A00060632662BDE8F081002C01402E2E2F449A
:1019B0007269766572732F53544D3332463178789D
:1019C0005F48414C5F4472697665722F5372632F92
:1019D00073746D3332663178785F68616C5F7469F7
:1019E0006D2E63002DE9F0410446006A0D4620F09B
:1019F00010002062206A6768A1692A6821F4E64124
:101A000041EA0228A96820F0200040EA01161B489C
:101A100084422BD1E86830B1082804D041F271210A
:101A200017A000F041F9E96826F0800040EA0110B3
:101A300020F04006A869B0F5007F05D020B141F242
:101A40007F210FA000F030F96869B0F5807F05D0E4
:101A500020B14FF494510AA000F026F9696927F4E7
:101A6000406040EA8100A96940EA81076760C4F8E4
:101A700018806868A0632662BDE8F081002C0140F0
:101A80002E2E2F447269766572732F53544D333264
:101A9000463178785F48414C5F4472697665722FB1
:101AA0005372632F73746D3332663178785F686177
:101AB0006C5F74696D2E63002DE9F0410446006A85
:101AC0000D4620F480702062206A6768E16920F486
:101AD000007021F07302296841EA0208A96840EA0F
:101AE00001261B4884422BD1E86830B1082804D075
:101AF00041F2BC2117A000F0D7F8E96826F4006095
:101B000040EA012020F48066A869B0F5007F05D086
:101B100020B141F2C9210FA000F0C6F86869B0F504
:101B2000807F05D020B141F2CA210AA000F0BCF8A4
:101B3000696927F4405040EA0110A96940EA011799
:101B40006760C4F81C806868E0632662BDE8F081C5
:101B5000002C01402E2E2F447269766572732F532C
:101B6000544D3332463178785F48414C5F44726956
:101B70007665722F5372632F73746D3332663178CA
:101B8000785F68616C5F74696D2E63002DE9F041C8
:101B90000446006A0D4620F480502062206A666880
:101BA000E1692A6821F4E64141EA0228A96820F4A3
:101BB000005040EA01370D4884420ED16869B0F503
:101BC000807F05D020B141F2073109A000F06CF808
:101BD000696926F4804040EA81166660C4F81C807A
:101BE000686820642762BDE8F0810000002C014095
:101BF0002E2E2F447269766572732F53544D3332F3
:101C0000463178785F48414C5F4472697665722F3F
:101C10005372632F73746D3332663178785F686105
:101C20006C5F74696D2E630000B5FFF765FD0948B0
:101C3000016841F400510160016821F480510160A4
:101C4000016841F400410160016821F480410160B4
:101C500000BD00000C0C014000B5FFF74DFD094828
:101C6000016841F480510160016821F40051016074
:101C7000016841F480410160016821F40041016084
:101C800000BD00000C0C0140FEE702E008C8121F76
:101C900008C1002AFAD170477047002001E001C155
:101CA000121F002AFBD1704770470000FEF7FAFCB4
:101CB000FFF768FDFFF774FCFFF7BCFC0421104838
:101CC000FFF718FC08210E48FFF714FC40F2DC5522
:101CD0004FF4FA74FEF7D0FA2846FEF7FBFAFFF746
:101CE000A3FF2046FEF7F6FAFFF72CFD2846FEF785
:101CF000F1FAFFF7B1FF2046FEF7ECFAEAE7000041
:101D00001C0000200000000000000000010203048D
:101D100006070809341D0008000000201C00000010
:101D20008A1C0008501D00081C000020440400000C
:101D30009A1C0008000000000000000000000000E5
:101D400001000000100000000000000000A24A0492
:04000005080000ED02
:00000001FF
