:020000040800F2
:100000001004002001010008FF0E0008FB0E00088C
:10001000FD0E000849010008D50F0008000000008F
:10002000000000000000000000000000230F000896
:100030004B01000800000000210F0008250F0008F8
:100040001B0100081B0100081B0100081B01000820
:100050001B0100081B0100081B0100081B01000810
:100060001B0100081B0100081B0100081B01000800
:100070001B0100081B0100081B0100081B010008F0
:100080001B0100081B0100081B0100081B010008E0
:100090001B0100081B0100081B0100081B010008D0
:1000A0001B0100081B0100081B0100081B010008C0
:1000B0001B0100081B010008000000001B010008D4
:1000C0001B01000800000000000000001B010008E8
:1000D000000000001B0100081B01000800000000D8
:1000E0001B0100081B0100081B010008DFF80CD0F1
:1000F00000F018F800480047F90F0008100400202D
:100100000648804706480047FEE7FEE7FEE7FEE7B1
:10011000FEE7FEE7FEE7FEE7FEE7FEE78D0F0008DD
:10012000ED000008064C074D06E0E06840F00103D2
:1001300094E8070098471034AC42F6D3FFF7DAFF93
:100140007810000898100008FEE7704770B5044664
:1001500000F0C8F90546601C02D004480078044449
:1001600000F0C0F9401BA042FAD370BD000000208F
:100170002DE9F84FDFF884B20C4605464FF0000930
:1001800058450CD09E48854209D09E48854206D0ED
:100190009D48854203D0CD219CA000F02BFF206814
:1001A0000104090C01D0000C03D0CE2197A000F06F
:1001B00021FF6068F8B101281DD011281BD002284A
:1001C00019D0122817D0A049884214D09F498842DC
:1001D00011D09F4988420ED09E4988420BD09E493B
:1001E000884208D09D49884205D0032803D0CF21FA
:1001F00086A000F0FFFE00274FF0010A26680AFAE9
:1002000007F806EA080646457ED15D450CD07C48D5
:10021000854209D07B48854206D07B48854203D081
:10022000DD217AA000F0E6FE874A6168881A9142D3
:1002300058D00EDC032977D006DC002952D00129E2
:1002400019D002296CD131E0112921D0122967D1AE
:100250003AE0B0F5881F45D006DCB0F5803F41D0CC
:10026000B0F5801F5CD13DE0B0F5001F3AD0B0F58D
:10027000041F55D136E0E068022807D0012805D0D8
:10028000032803D0E52161A000F0B4FEE06841E05E
:10029000E068022807D0012805D0032803D0EC210C
:1002A0005AA000F0A7FEE068001D33E0E0680228D5
:1002B00007D0012805D0032803D0F32153A000F074
:1002C00099FEE068083025E0E068022807D00128A0
:1002D00005D0032803D0FA214CA000F08BFEE06883
:1002E0000C3017E0A068A0B1012815D0022808D072
:1002F00040F2071145A000F07DFEA06848B101283A
:100300000AD04FF0080901E072E00DE0C5F8148052
:1003100006E00420814603E04FF00809C5F810808C
:10032000FF2E04D8294604E04FF00000F2E705F163
:1003300004014FEA870001D9A0F120000B684FF0BB
:100340000F0202FA00FC23EA0C0309FA00FC43EA5C
:100350000C030B606068C0004AD54148816941F0D8
:1003600001018161806927F0030100F00100009024
:100370003C480B189868B9074FEA117C02FA0CF256
:1003800090435D4501D100210AE01D498D4201D114
:10039000012105E01B498D4201D1022100E003212A
:1003A00001FA0CF1014399606068C0032E480168AE
:1003B00001D5314300E0B1430160606880032B4800
:1003C000016801D5314300E0B14301606068C002BB
:1003D0002748016801D5314300E0B14301606068FE
:1003E00080022448016801D5314300E0B143016037
:1003F0007F1C102FFFF402AFBDE8F88F000801400A
:10040000000C014000100140001401402E2E2F442A
:100410007269766572732F53544D33324631787852
:100420005F48414C5F4472697665722F5372632F47
:1004300073746D3332663178785F68616C5F6770B2
:10044000696F2E63000000000000111000002110F1
:1004500000003110000012100000221000003210C5
:10046000001002400000014000040140040401406B
:10047000080401400C04014070B515460C00064606
:1004800004D140F2E31108A000F0B4FD45B1012D04
:1004900004D04FF4F27104A000F0ACFD346170BDE3
:1004A0002004306170BD00002E2E2F4472697665E5
:1004B00072732F53544D3332463178785F48414C34
:1004C0005F4472697665722F5372632F73746D3354
:1004D00032663178785F68616C5F6770696F2E6330
:1004E0000000000001488068704700000000002004
:1004F0000248816802781144816070470000002042
:10050000074810B5016841F010010160032000F0B8
:10051000C1F8002000F006F800F024F8002010BD1B
:100520000020024070B50D4D04464FF47A712878D2
:10053000B1FBF0F00A490968B1FBF0F000F0C5FC2E
:1005400048B9102C07D200222146501E00F052F864
:1005500000206C6070BD012070BD00000000002014
:100560000C000020214808B5816941F0010181613A
:10057000816901F001010091C16941F08051C161BF
:10058000C06900F080500090032000F083F8002242
:1005900011466FF00B0000F02DF8002211466FF0AD
:1005A0000A0000F027F8002211466FF0090000F061
:1005B00021F800221146501F00F01CF800221146BD
:1005C000101F00F017F800221146901E00F012F8DC
:1005D00000221146501E00F00DF80548416821F038
:1005E000E06141F08061416008BD00000010024000
:1005F0000000014070B515460C460646102A03D38C
:10060000BA2114A000F0F6FC102C03D3BB2111A0DA
:1006100000F0F0FC1E480068C0F30223C3F107029B
:100620002046042A00D90422191D072901D20023DB
:1006300000E0DB1E012404FA02F1491E014099404A
:100640009C40641E2C4021433046BDE8704000F0C1
:1006500057BC00002E2E2F447269766572732F539B
:10066000544D3332463178785F48414C5F4472696B
:100670007665722F5372632F73746D3332663178DF
:10068000785F68616C5F636F727465782E630000D9
:100690000CED00E010B5044607280BD0062C09D05D
:1006A000052C07D0042C05D0032C03D0A22108A0D0
:1006B00000F0A0FC154904F0070208684FF6FF039C
:1006C000184040EA0220124A1043086010BD0000A2
:1006D0002E2E2F447269766572732F53544D333228
:1006E000463178785F48414C5F4472697665722F75
:1006F0005372632F73746D3332663178785F68613B
:100700006C5F636F727465782E6300000CED00E01F
:100710000000FA052DE9F0470E46050004D140F22D
:100720002E3181A000F066FC2868C1070AD181073C
:1007300008D4410706D4000704D440F22F317AA030
:1007400000F058FC46B1012E06D0022E04D04FF422
:100750004C7175A000F04EFCDFF80482D8F8000060
:1007600000F00700B0420CD2D8F8001021F00701C9
:100770003143C8F80010D8F8000000F00700B0427C
:1007800072D12878774C80071CD5A868A0B1802842
:1007900012D0902810D0A0280ED0B0280CD0C0289D
:1007A0000AD0D02808D0E02806D0F02804D040F2A3
:1007B00049315DA000F01EFC6068A96820F0F000DF
:1007C000084360602878C00753D0686868B1012882
:1007D00021D0022822D04FF4547153A000F00AFC1B
:1007E0006868012817D0022818D0206880070028E0
:1007F00050DA6068696820F0030008436060FFF722
:1008000071FE6968074641F28830012910D002293B
:1008100081461AD029E020688003E8E7206880013B
:10082000E5E700BFFFF75EFEC11B494501D918E0AF
:1008300081466068C0F381000128F3D119E000BF50
:10084000FFF750FEC11B49450BD86068C0F381001B
:100850000228F5D10DE000BFFFF744FEC11B49455A
:1008600003D90320BDE8F08714E0606810F00C0F96
:10087000F2D1D8F80010404601F00701B1420BD97F
:10088000016821F0070131430160006800F00700B2
:10089000B04201D00120E5E728784FF48066400798
:1008A0004FF4A0674FF4C0684FF4E06914D5E868CE
:1008B00060B1B0420AD0B84208D0404506D04845A1
:1008C00004D04FF4697118A000F094FB6068E968E7
:1008D00020F4E060084360602878000715D5286997
:1008E00060B1B0420AD0B84208D0404506D0484571
:1008F00004D040F2AB310CA000F07CFB60682969A9
:1009000020F4605040EAC100606000F037F8616890
:10091000154AC1F30311515CC84014490860002016
:10092000FFF700FE00209DE72E2E2F4472697665AA
:1009300072732F53544D3332463178785F48414CAF
:100940005F4472697665722F5372632F73746D33CF
:1009500032663178785F68616C5F7263632E630022
:100960000020024000100240681000080C00002027
:1009700001480068704700000C00002012A185B0FB
:100980000FC98DE80F0014A0144A00680490516844
:10099000134801F00C03042B10D0082B0ED1C1F327
:1009A0008343C9031DF803000AD5516804AAC1F3A3
:1009B0004041515C0A4A5043B0FBF1F005B070472A
:1009C00008494843FAE7000002030405060708093E
:1009D0000A0B0C0D0E0F1010010200000010024057
:1009E00000127A0000093D002DE9F84F040004D1FF
:1009F0004FF4B871F4A000F0FDFA4FF0010A4FF087
:100A000000084FF48039FE4EFE4D206860B1C107EA
:100A10000DD1810763D401077ED440077DD440F215
:100A20007111E9A000F0E6FA2078C00754D06068A0
:100A30004FF4A02740B1484506D0B84204D040F258
:100A40007711E1A000F0D6FA6868C0F381000128B0
:100A500007D06868C0F38100022809D16868C00324
:100A600006D52868800337D56068002876D033E043
:100A70006068484503D1286840F4803009E008B137
:100A8000B8420DD0286820F480302860286820F40F
:100A900080202860606890B1FFF724FD07460AE0D7
:100AA000286840F480202860E5E700BFFFF71AFDC2
:100AB000C01B642877D828688003F7D50CE0FFF7BF
:100AC00011FD074605E000BFFFF70CFDC01B6428C1
:100AD000F0D828688003F7D4207880074ED52069A5
:100AE00030B1012804D040F2AB11B7A000F082FA77
:100AF00060691F2804D94FF4D671B3A000F07AFAC8
:100B0000686810F00C0F0AD06868C0F381000228F2
:100B10000CD16868C00301E033E06CE006D42868BB
:100B2000800713D52069012818D10FE02069B0B1E2
:100B3000C6F800A0FFF7D6FC074604E0FFF7D2FC9A
:100B4000C01B0228B6D828688007F7D528686169D5
:100B500020F0F80040EAC10028600FE033E1C6F859
:100B60000080FFF7BFFC074605E000BFFFF7BAFCB7
:100B7000C01B02289ED828688007F7D42078000779
:100B800036D5A14FA06920B3012806D04FF4F671E5
:100B90008DA000F02FFAA069D8B1C7F800A0FFF728
:100BA000A1FC074605E052E1FFF79CFCC01B0228B0
:100BB0008ED8686A8007F7D594484FF4FA510068D8
:100BC000B0FBF1F0009000BF0098411E0091FAD2F6
:100BD0000EE0C7F80080FFF785FC074605E000BF80
:100BE000FFF780FCC01B0228ACD8686A8007F7D4E6
:100BF000207840076CD5E068002740B1012806D076
:100C0000052804D040F21B216FA000F0F3F9E86939
:100C1000C00008D4E86940F08050E861E869012725
:100C200000F0805000907A480168C90512D401682C
:100C300041F480710160FFF755FC834606E000BF78
:100C4000FFF750FCA0EB0B00642893D870480068B5
:100C5000C005F5D5E06801280AD008B1052811D0F3
:100C6000286A20F001002862286A20F0040002E0CF
:100C7000286A40F001002862E068A8B1FFF732FC62
:100C800083460DE0286A40F004002862F0E700BFC8
:100C9000FFF728FCA0EB0B0141F28830814287D896
:100CA000286A8007F4D50EE0FFF71CFC834607E0B6
:100CB000FFF718FCA0EB0B0141F28830814293D87A
:100CC000286A8007F4D41FB1E86920F08050E861F9
:100CD000E069002876D0012809D0022807D040F228
:100CE000B92139A000F086F9E06900286AD0686867
:100CF000C0F38100022866D0E069022805D0C6F85A
:100D00006080FFF7EFFB0446A4E0206A30B148455D
:100D100004D040F2C2212CA000F06CF9606A70B3DC
:100D2000B0F5802F2BD0B0F5002F28D0B0F5402F94
:100D300025D0B0F5801F22D0B0F5A01F1FD0B0F590
:100D4000C01F1CD0B0F5E01F19D0B0F5001F16D0A1
:100D5000B0F5101F13D0B0F5201F10D0B0F5301F24
:100D60000DD0B0F5401F0AD0B0F5501F07D0B0F538
:100D7000601F04D040F2C32113A000F03BF9C6F875
:100D80006080FFF7AFFB074605E000BFFFF7AAFB57
:100D9000C01B02285BD828688001F7D4206A484528
:100DA0000FD1A06838B1B0F5003F04D040F2D9218E
:100DB00005A000F01FF96868A16820F4003008431E
:100DC000686027E049E04AE02E2E2F44726976657C
:100DD00072732F53544D3332463178785F48414C0B
:100DE0005F4472697665722F5372632F73746D332B
:100DF00032663178785F68616C5F7263632E63007E
:100E00000000424200100240800442420C000020D8
:100E100000700040D4E908010843696821F47411A6
:100E200008436860C6F860A0FFF75CFB044604E076
:100E3000FFF758FB001B022809D828688001F7D566
:100E40000BE000BFFFF74EFB001B022802D9032076
:100E5000BDE8F88F28688001F4D40020F8E701206D
:100E6000F6E7000010B54FF0E024042809D020B1C7
:100E700040F2D91105A000F0BDF8206920F004006F
:100E800002E0206940F00400206110BD2E2E2F44A6
:100E90007269766572732F53544D333246317878C8
:100EA0005F48414C5F4472697665722F5372632FBD
:100EB00073746D3332663178785F68616C5F636F2D
:100EC000727465782E630000704710B5401EB0F153
:100ED000807F01D3012010BD4FF0E02460610F211D
:100EE000601700F00DF80020A061072020610020AD
:100EF00010BD10B5FFF7E8FF10BDFEE7FEE7704735
:100F00000907090E002806DA00F00F0000F1E020C2
:100F100080F8141D704700F1E02080F8001470473D
:100F20007047704710B5FFF7E3FABDE81040FFF7D0
:100F3000E0BF10B590B00220009001200490102076
:100F40000024059007946846FFF74EFD00B1FEE7C8
:100F50000F20CDE90A040C940D9400210AA80E94E8
:100F6000FFF7D8FB00B1FEE7FFF702FD4FF47A71FF
:100F7000B0FBF1F0FFF7A9FF0420FFF773FF002299
:100F80001146501EFFF736FB10B010BD0D4801682A
:100F900041F00101016041680B4A11404160016864
:100FA0000A4A11400160016821F480210160416812
:100FB00021F4FE0141604FF41F0181600449C00328
:100FC00008607047001002400000FFF8FFFFF6FEC7
:100FD00008ED00E0FEE702E008C8121F08C1002A81
:100FE000FAD170477047002001E001C1121F002AAA
:100FF000FBD170477047000086B0FFF781FAFFF71A
:1010000098FF1748816941F0080181618069154C9A
:1010100000F008000490002201212046FFF72CFA7E
:10102000012100200091CDE90110022003906946C2
:101030002046FFF79DF80B4C4FF47A750C3441F2C3
:101040008836206840F0010020602846FFF77EF8CF
:10105000206820F0010020603046FFF777F8F0E7C5
:1010600000100240000C01400000000000000000E1
:101070000102030406070809981000080000002078
:1010800010000000D60F0008A81000081000002073
:1010900000040000E60F000801000000100000003E
:0810A0000000000000A24A0458
:04000005080000ED02
:00000001FF
