:020000040800F2
:10000000900400200101000817180008B916000824
:100010001518000849010008731D000800000000C1
:100020000000000000000000000000003B18000875
:100030004B01000800000000391800083D180008B6
:100040001B0100081B0100081B0100081B01000820
:100050001B0100081B0100081B0100081B01000810
:100060001B0100081B0100081B0100081B01000800
:100070001B0100081B0100081B0100081B010008F0
:100080001B0100081B0100081B0100081B010008E0
:100090001B0100081B0100081B0100081B010008D0
:1000A0001B0100081B0100081B0100081B010008C0
:1000B0001B0100081B010008000000001B010008D4
:1000C0001B01000800000000000000001B010008E8
:1000D000000000001B0100081B01000800000000D8
:1000E0001B0100081B0100081B010008DFF80CD0F1
:1000F00000F018F800480047951D00089004002003
:100100000648804706480047FEE7FEE7FEE7FEE7B1
:10011000FEE7FEE7FEE7FEE7FEE7FEE7A5180008BC
:10012000ED000008064C074D06E0E06840F00103D2
:1001300094E8070098471034AC42F6D3FFF7DAFF93
:10014000E81D0008081E0008FEE770472DE9F84F7B
:10015000DFF884B20C4605464FF0000958450CD034
:100160009E48854209D09E48854206D09D488542DA
:1001700003D0CD219CA001F00CFE20680104090CE5
:1001800001D0000C03D0CE2197A001F002FE6068E0
:10019000F8B101281DD011281BD0022819D012282F
:1001A00017D0A049884214D09F49884211D09F4956
:1001B00088420ED09E4988420BD09E49884208D082
:1001C0009D49884205D0032803D0CF2186A001F0A5
:1001D000E0FD00274FF0010A26680AFA07F806EA50
:1001E000080646457ED15D450CD07C48854209D045
:1001F0007B48854206D07B48854203D0DD217AA02A
:1002000001F0C7FD874A6168881A914258D00EDC18
:10021000032977D006DC002952D0012919D0022900
:100220006CD131E0112921D0122967D13AE0B0F523
:10023000881F45D006DCB0F5803F41D0B0F5801F67
:100240005CD13DE0B0F5001F3AD0B0F5041F55D1A8
:1002500036E0E068022807D0012805D0032803D043
:10026000E52161A001F095FDE06841E0E068022829
:1002700007D0012805D0032803D0EC215AA001F0B3
:1002800088FDE068001D33E0E068022807D00128FF
:1002900005D0032803D0F32153A001F07AFDE068D4
:1002A000083025E0E068022807D0012805D003289F
:1002B00003D0FA214CA001F06CFDE0680C3017E08F
:1002C000A068A0B1012815D0022808D040F207117B
:1002D00045A001F05EFDA06848B101280AD04FF0AA
:1002E000080901E072E00DE0C5F8148006E0042082
:1002F000814603E04FF00809C5F81080FF2E04D8AE
:10030000294604E04FF00000F2E705F104014FEA4E
:10031000870001D9A0F120000B684FF00F0202FA0C
:1003200000FC23EA0C0309FA00FC43EA0C030B600F
:100330006068C0004AD54148816941F0010181618E
:10034000806927F0030100F0010000903C480B1881
:100350009868B9074FEA117C02FA0CF290435D45A8
:1003600001D100210AE01D498D4201D1012105E0A2
:100370001B498D4201D1022100E0032101FA0CF159
:10038000014399606068C0032E48016801D531437C
:1003900000E0B1430160606880032B48016801D52B
:1003A000314300E0B14301606068C0022748016842
:1003B00001D5314300E0B143016060688002244808
:1003C000016801D5314300E0B14301607F1C102F6B
:1003D000FFF402AFBDE8F88F00080140000C0140B7
:1003E00000100140001401402E2E2F4472697665E2
:1003F00072732F53544D3332463178785F48414CF5
:100400005F4472697665722F5372632F73746D3314
:1004100032663178785F68616C5F6770696F2E63F0
:100420000000000000001110000021100000311039
:1004300000001210000022100000321000100240D4
:100440000000014000040140040401400804014090
:100450000C04014070B515460C00064604D140F26C
:10046000E31108A001F095FC45B1012D04D04FF433
:10047000F27104A001F08DFC346170BD2004306184
:1004800070BD00002E2E2F447269766572732F5353
:10049000544D3332463178785F48414C5F4472693D
:1004A0007665722F5372632F73746D3332663178B1
:1004B000785F68616C5F6770696F2E630000000091
:1004C00001488068704700000000002002488168F1
:1004D000027811448160704700000020074810B581
:1004E000016841F010010160032000F0C1F8002014
:1004F00000F006F800F024F8002010BD00200240B3
:1005000070B50D4D04464FF47A712878B1FBF0F0C8
:100510000A490968B1FBF0F000F0C5FC48B9102C9D
:1005200007D200222146501E00F052F800206C60D5
:1005300070BD012070BD0000000000200C000020F4
:10054000214808B5816941F001018161816901F0AB
:1005500001010091C16941F08051C161C06900F0A1
:1005600080500090032000F083F8002211466FF0C5
:100570000B0000F02DF8002211466FF00A0000F089
:1005800027F8002211466FF0090000F021F8002240
:100590001146501F00F01CF800221146101F00F0F9
:1005A00017F800221146901E00F012F800221146A2
:1005B000501E00F00DF80548416821F0E06141F05F
:1005C0008061416008BD0000001002400000014051
:1005D00070B515460C460646102A03D3BA2114A05E
:1005E00001F0D7FB102C03D3BB2111A001F0D1FBEC
:1005F0001E480068C0F30223C3F107022046042A04
:1006000000D90422191D072901D2002300E0DB1EB6
:10061000012404FA02F1491E014099409C40641EE5
:100620002C4021433046BDE8704001F0F5B8000091
:100630002E2E2F447269766572732F53544D3332C8
:10064000463178785F48414C5F4472697665722F15
:100650005372632F73746D3332663178785F6861DB
:100660006C5F636F727465782E6300000CED00E0C0
:1006700010B5044607280BD0062C09D0052C07D04E
:10068000042C05D0032C03D0A22108A001F081FB8B
:10069000154904F0070208684FF6FF03184040EAC6
:1006A0000220124A1043086010BD00002E2E2F4475
:1006B0007269766572732F53544D333246317878B0
:1006C0005F48414C5F4472697665722F5372632FA5
:1006D00073746D3332663178785F68616C5F636F15
:1006E000727465782E6300000CED00E00000FA05DE
:1006F0002DE9F0470E46050004D140F22E3181A0CD
:1007000001F047FB2868C1070AD1810708D44107D7
:1007100006D4000704D440F22F317AA001F039FB4F
:1007200046B1012E06D0022E04D04FF44C7175A0B4
:1007300001F02FFBDFF80482D8F8000000F007007A
:10074000B0420CD2D8F8001021F007013143C8F8AC
:100750000010D8F8000000F00700B04272D12878ED
:10076000774C80071CD5A868A0B1802812D09028AB
:1007700010D0A0280ED0B0280CD0C0280AD0D02885
:1007800008D0E02806D0F02804D040F249315DA01E
:1007900001F0FFFA6068A96820F0F000084360608B
:1007A0002878C00753D0686868B1012821D0022892
:1007B00022D04FF4547153A001F0EBFA686801287D
:1007C00017D0022818D020688007002850DA606807
:1007D000696820F0030008436060FFF771FE6968F4
:1007E000074641F28830012910D0022981461AD0EB
:1007F00029E020688003E8E720688001E5E700BF82
:10080000FFF75EFEC11B494501D918E081466068CB
:10081000C0F381000128F3D119E000BFFFF750FEBB
:10082000C11B49450BD86068C0F381000228F5D18F
:100830000DE000BFFFF744FEC11B494503D903206B
:10084000BDE8F08714E0606810F00C0FF2D1D8F822
:100850000010404601F00701B1420BD9016821F0B8
:10086000070131430160006800F00700B04201D089
:100870000120E5E728784FF4806640074FF4A06731
:100880004FF4C0684FF4E06914D5E86860B1B04235
:100890000AD0B84208D0404506D0484504D04FF4AD
:1008A000697118A001F075FA6068E96820F4E060E9
:1008B000084360602878000715D5286960B1B04208
:1008C0000AD0B84208D0404506D0484504D040F28E
:1008D000AB310CA001F05DFA6068296920F460502A
:1008E00040EAC100606000F037F86168154AC1F362
:1008F0000311515CC840144908600020FFF700FE56
:1009000000209DE72E2E2F447269766572732F5357
:10091000544D3332463178785F48414C5F447269B8
:100920007665722F5372632F73746D33326631782C
:10093000785F68616C5F7263632E63000020024021
:1009400000100240D81D00080C000020014800687B
:10095000704700000C00002012A185B00FC98DE87F
:100960000F0014A0144A006804905168134801F065
:100970000C03042B10D0082B0ED1C1F38343C90301
:100980001DF803000AD5516804AAC1F34041515C27
:100990000A4A5043B0FBF1F005B07047084948439C
:1009A000FAE7000002030405060708090A0B0C0D0C
:1009B0000E0F1010010200000010024000127A0019
:1009C00000093D002DE9F84F040004D14FF4B8713F
:1009D000F4A001F0DEF94FF0010A4FF000084FF4E7
:1009E0008039FE4EFE4D206860B1C1070DD18107F0
:1009F00063D401077ED440077DD440F27111E9A091
:100A000001F0C7F92078C00754D060684FF4A027E0
:100A100040B1484506D0B84204D040F27711E1A079
:100A200001F0B7F96868C0F38100012807D0686851
:100A3000C0F38100022809D16868C00306D5286880
:100A4000800337D56068002876D033E06068484579
:100A500003D1286840F4803009E008B1B8420DD0D5
:100A6000286820F480302860286820F480202860DE
:100A7000606890B1FFF724FD07460AE0286840F45B
:100A800080202860E5E700BFFFF71AFDC01B64283F
:100A900077D828688003F7D50CE0FFF711FD0746EB
:100AA00005E000BFFFF70CFDC01B6428F0D82868E4
:100AB0008003F7D4207880074ED5206930B1012813
:100AC00004D040F2AB11B7A001F063F960691F28B0
:100AD00004D94FF4D671B3A001F05BF9686810F047
:100AE0000C0F0AD06868C0F3810002280CD1686836
:100AF000C00301E033E06CE006D42868800713D51A
:100B00002069012818D10FE02069B0B1C6F800A013
:100B1000FFF7D6FC074604E0FFF7D2FCC01B022813
:100B2000B6D828688007F7D52868616920F0F800F2
:100B300040EAC10028600FE033E1C6F80080FFF70B
:100B4000BFFC074605E000BFFFF7BAFCC01B022848
:100B50009ED828688007F7D42078000736D5A14FA3
:100B6000A06920B3012806D04FF4F6718DA001F0E2
:100B700010F9A069D8B1C7F800A0FFF7A1FC07469B
:100B800005E052E1FFF79CFCC01B02288ED8686A82
:100B90008007F7D594484FF4FA510068B0FBF1F0A4
:100BA000009000BF0098411E0091FAD20EE0C7F8F5
:100BB0000080FFF785FC074605E000BFFFF780FCDB
:100BC000C01B0228ACD8686A8007F7D42078400799
:100BD0006CD5E068002740B1012806D0052804D074
:100BE00040F21B216FA001F0D4F8E869C00008D4DE
:100BF000E86940F08050E861E869012700F0805022
:100C000000907A480168C90512D4016841F48071E6
:100C10000160FFF755FC834606E000BFFFF750FC7C
:100C2000A0EB0B00642893D870480068C005F5D588
:100C3000E06801280AD008B1052811D0286A20F000
:100C400001002862286A20F0040002E0286A40F0CF
:100C500001002862E068A8B1FFF732FC83460DE08E
:100C6000286A40F004002862F0E700BFFFF728FC84
:100C7000A0EB0B0141F28830814287D8286A8007B7
:100C8000F4D50EE0FFF71CFC834607E0FFF718FCE5
:100C9000A0EB0B0141F28830814293D8286A80078B
:100CA000F4D41FB1E86920F08050E861E0690028C1
:100CB00076D0012809D0022807D040F2B92139A006
:100CC00001F067F8E06900286AD06868C0F3810025
:100CD000022866D0E069022805D0C6F86080FFF7D8
:100CE000EFFB0446A4E0206A30B1484504D040F24E
:100CF000C2212CA001F04DF8606A70B3B0F5802FCE
:100D00002BD0B0F5002F28D0B0F5402F25D0B0F56E
:100D1000801F22D0B0F5A01F1FD0B0F5C01F1CD07F
:100D2000B0F5E01F19D0B0F5001F16D0B0F5101FB8
:100D300013D0B0F5201F10D0B0F5301F0DD0B0F596
:100D4000401F0AD0B0F5501F07D0B0F5601F04D087
:100D500040F2C32113A001F01CF8C6F86080FFF731
:100D6000AFFB074605E000BFFFF7AAFBC01B022848
:100D70005BD828688001F7D4206A48450FD1A06865
:100D800038B1B0F5003F04D040F2D92105A001F000
:100D900000F86868A16820F400300843686027E024
:100DA00049E04AE02E2E2F447269766572732F5304
:100DB000544D3332463178785F48414C5F44726914
:100DC0007665722F5372632F73746D333266317888
:100DD000785F68616C5F7263632E6300000042425B
:100DE00000100240800442420C00002000700040CD
:100DF000D4E908010843696821F474110843686064
:100E0000C6F860A0FFF75CFB044604E0FFF758FB60
:100E1000001B022809D828688001F7D50BE000BF25
:100E2000FFF74EFB001B022802D90320BDE8F88F14
:100E300028688001F4D40020F8E70120F6E70000DC
:100E400010B54FF0E024042809D020B140F2D911A8
:100E500005A000F09EFF206920F0040002E0206958
:100E600040F00400206110BD2E2E2F44726976657B
:100E700072732F53544D3332463178785F48414C6A
:100E80005F4472697665722F5372632F73746D338A
:100E900032663178785F68616C5F636F7274657811
:100EA0002E630000704710B5401EB0F1807F01D363
:100EB000012010BD4FF0E02460610F21601700F0A9
:100EC000ABFC0020A06107202061002010BD10B500
:100ED000FFF7E8FF10BD000070B50D46044600683E
:100EE000284988420AD0B0F1804F07D0264988426D
:100EF00004D04FF4C76125A000F04BFF286890B1E3
:100F0000102810D020280ED030280CD040280AD02D
:100F1000502808D0602806D0702804D040F23961EB
:100F20001AA000F036FF6868802805D020B140F292
:100F30003A6116A000F02DFF94F83C0001281FD064
:100F4000012084F83C00022184F83D1021684A68A1
:100F500022F070024A6021684A682B681A434A608E
:100F600021688A6822F080028A6021688A686B683A
:100F70001A438A6084F83D00002084F83C0070BD6C
:100F8000022070BD002C0140000400402E2E2F4492
:100F90007269766572732F53544D333246317878C7
:100FA0005F48414C5F4472697665722F5372632FBC
:100FB00073746D3332663178785F68616C5F746921
:100FC0006D5F65782E6300002DE9F04704460068E8
:100FD000754FDFF8D88116460D464FF08049B8426C
:100FE00008D0484506D0404504D040F6BD3170A039
:100FF00000F0CFFE286830B1022804D040F6BE31A0
:101000006BA000F0C6FE6868012808D0022806D050
:10101000032804D040F6BF3165A000F0BAFEA868EE
:1010200050B1042808D0082806D00C2804D04FF46A
:101030003C615FA000F0ADFEE8680F2804D940F6DF
:10104000C1315BA000F0A5FE94F83C0001284AD015
:101050004FF0010A84F83CA0022084F83D00EEB372
:10106000042E52D02068082E6DD0B84208D04845D2
:1010700006D0404504D040F6F8314DA000F089FE7E
:101080002068D5E90026E968036A23F480530362E7
:10109000C769036A27F4407747EA06264FF6FF77C9
:1010A00026F4704607EA013131434FF4005623F429
:1010B000005306EA02321A43C16102622068C16924
:1010C00021F44061C1612068C169AA6841EA022136
:1010D000C0F81C1084F83DA0002000E005E084F872
:1010E0003C00BDE8F0870220FBE7D5E90012EB6881
:1010F000206800F0FBFD2068816921F00C0181610E
:1011000020688169AA6811431BE02068B84208D0B2
:10111000484506D0404504D040F6D83124A000F020
:1011200038FED5E90012EB68206800F007FE206861
:10113000816921F44061816120688169AA6841EA7E
:1011400002218161C6E7B84208D0484506D0404533
:1011500004D040F6E83116A000F01BFE2068D5E967
:1011600000272E7B016A21F480710162C169036A44
:1011700021F00301394321F0F00731074FF42066D5
:1011800047EA116123F4206306EA02221A43C1618F
:1011900002622068C16921F00C01C1612068C16947
:1011A000AA68114394E70000002C014000040040AD
:1011B0002E2E2F447269766572732F53544D33323D
:1011C000463178785F48414C5F4472697665722F8A
:1011D0005372632F73746D3332663178785F686150
:1011E0006C5F74696D2E630010B5040037D026491A
:1011F000206888420AD0B0F1804F07D02349884246
:1012000004D040F2DE5122A000F0C3FDA06860B11E
:1012100010280AD0202808D0402806D0602804D002
:1012200040F2DF511AA000F0B4FD206950B1B0F5D2
:10123000807F07D0B0F5007F04D04FF4BC6114A0CC
:1012400000F0A7FDA06930B1802804D040F2E15140
:101250000FA000F09EFD94F83D0010B107E00120C2
:1012600010BD002084F83C00204600F02DF802203C
:1012700084F83D00211D206800F038FB012084F82F
:101280003D00002010BD0000002C01400004004083
:101290002E2E2F447269766572732F53544D33325C
:1012A000463178785F48414C5F4472697665722FA9
:1012B0005372632F73746D3332663178785F68616F
:1012C0006C5F74696D2E630000B500680C4985B0D1
:1012D000884212D10B48816941F4006181618069C3
:1012E000694600F4006004904FF4A0600090002074
:1012F000019002900448FEF729FF05B000BD0000F0
:10130000002C014000100240000801401FB5006899
:10131000B0F1804F08D10620009002200190039088
:1013200069460248FEF712FF1FBD00000008014099
:101330002DE9F041044690F83C0016460D46012880
:101340003BD0012784F83C7066B1042E0AD0082EE9
:1013500008D00C2E06D0182E04D040F61F415BA0FA
:1013600000F017FD2868602806D0702804D04FF4DC
:10137000426156A000F00DFDA86830B1022804D0EB
:1013800040F6214151A000F004FD286930B1042845
:1013900004D040F622414DA000F0FBFC022084F86E
:1013A0003D00584858494FF080434EB1042E26D096
:1013B000082E45D00C2E42D161E00220BDE8F0811C
:1013C0002268824208D09A4206D08A4204D040F66F
:1013D0002A413EA000F0DDFC2946206800F0FEFA1C
:1013E0002068816941F0080181612068816921F0EC
:1013F00004018161206881692A6911431EE0226825
:10140000824208D09A4206D08A4204D040F639413E
:101410002EA000F0BEFC2946206800F045FB2068A5
:10142000816941F4006181612068816921F48061F2
:101430008161206881692A6941EA022181613EE077
:101440002268824208D09A4206D08A4204D040F6EE
:1014500048411EA000F09DFC2946206800F08EFB4C
:101460002068C16941F00801C1612068C16921F0AB
:101470000401C1612068C1692A6911431EE0226824
:10148000824208D09A4206D08A4204D040F65741A0
:101490000EA000F07EFC2946206800F0D9FB2068F1
:1014A000C16941F40061C1612068C16921F48061B2
:1014B000C1612068C1692A6941EA0221C16184F8D9
:1014C0003D70002084F83C0078E700002E2E2F4469
:1014D0007269766572732F53544D33324631787882
:1014E0005F48414C5F4472697665722F5372632F77
:1014F00073746D3332663178785F68616C5F7469DC
:101500006D2E6300002C01400004004010B5040063
:1015100037D02649206888420AD0B0F1804F07D0E2
:101520002349884204D040F2E23122A000F031FC8D
:10153000A06860B110280AD0202808D0402806D022
:10154000602804D040F2E3311AA000F022FC2069A8
:1015500050B1B0F5807F07D0B0F5007F04D04FF4D4
:10156000797114A000F015FCA06930B1802804D076
:1015700040F2E5310FA000F00CFC94F83D0010B1F2
:1015800007E0012010BD002084F83C00204600F058
:101590002DF8022084F83D00211D206800F0A6F9F6
:1015A000012084F83D00002010BD0000002C014007
:1015B000000400402E2E2F447269766572732F53FB
:1015C000544D3332463178785F48414C5F447269FC
:1015D0007665722F5372632F73746D333266317870
:1015E000785F68616C5F74696D2E630008B5006890
:1015F000B0F1804F08D10548C16941F00101C161D6
:10160000C06900F00100009008BD00000010024019
:1016100070B505460068184E0C46B04206D1BCB104
:10162000042C15D0082C13D00C2C11D0B0F1804F05
:1016300002D01249884206D154B1042C08D0082C9B
:1016400006D00C2C04D040F241410DA000F0A1FBCB
:1016500001222146286800F077F92868B04203D1BA
:10166000416C41F4004141642868016841F0010186
:101670000160002070BD0000002C0140000400400B
:101680002E2E2F447269766572732F53544D333268
:10169000463178785F48414C5F4472697665722FB5
:1016A0005372632F73746D3332663178785F68617B
:1016B0006C5F74696D2E6300FEE700002DE9F04356
:1016C0001C4885B0816941F004018161816901F0A4
:1016D00004010491816941F0080181618069DFF8AA
:1016E000588000F008004FF20304049000222146C5
:1016F0004046FEF7AFFEDFF844904FF480570022DB
:1017000039464846FEF7A6FE009401AA01240025AA
:10171000022682E8700069464046FEF717FD01AADE
:10172000009782E8700069464846FEF70FFD05B055
:10173000BDE8F08300100240000C014000080140A9
:1017400010B5184886B016490024C0E900144FF6B9
:10175000FF71C0E90241046144618461FFF744FD07
:1017600000B1FEE7049404A90E480594FFF7B4FB0A
:1017700000B1FEE70120CDE9004002940022694655
:1017800008480394FFF720FC00B1FEE708226946F1
:101790000448FFF719FC002800D0FEE706B010BD92
:1017A000002C01401000002010B519488AB04FF0FD
:1017B0008041016032210024C0E901144FF43471EA
:1017C000C0E903148461FFF7A1FE00B1FEE70794AE
:1017D00007A90F480894FFF77FFB00B1FEE76020E0
:1017E00000906420CDE9010404226946084804946D
:1017F000FFF79EFD00B1FEE7082269460448FFF7A7
:1018000097FD00B1FEE70248FFF780FD0AB010BD6A
:1018100050000020FEE770470907090E002806DA8D
:1018200000F00F0000F1E02080F8141D704700F177
:10183000E02080F8001470477047704710B5FEF73D
:1018400045FEBDE81040FFF742BB10B590B0022046
:101850000090012004901020002405900794684611
:10186000FFF7B0F800B1FEE70F20CDE90A040C94B1
:101870000D9400210AA80E94FEF73AFF00B1FEE78E
:10188000FFF764F84FF47A71B0FBF1F0FFF70BFB50
:101890000420FFF7D5FA00221146501EFEF798FEED
:1018A00010B010BD0D48016841F0010101604168B0
:1018B0000B4A1140416001680A4A11400160016809
:1018C00021F480210160416821F4FE0141604FF460
:1018D0001F0181600449C003086070470010024086
:1018E0000000FFF8FFFFF6FE08ED00E070B50268AB
:1018F000134B144C4FF08046984203D0B04201D0B5
:10190000A04203D122F070054A682A43984203D0CE
:10191000B04201D0A04203D122F44074CA682243ED
:1019200022F080044A69224302608A68C2620A681F
:101930008262984201D1096901630121416170BD50
:10194000002C01400004004070B5054613481646BF
:101950000C4685420AD0B5F1804F07D01048854229
:1019600004D041F2F7410FA000F013FA64B1042C47
:101970000AD0082C08D00C2C06D0182C04D041F228
:10198000F84108A000F005FA0120296AA04081432F
:101990002962286AA6403043286270BD002C0140AD
:1019A000000400402E2E2F447269766572732F5307
:1019B000544D3332463178785F48414C5F44726908
:1019C0007665722F5372632F73746D33326631787C
:1019D000785F68616C5F74696D2E63002DE9F0417A
:1019E0000446006A0D4620F001002062206A676804
:1019F000A169AE6820F0020021F073020643296855
:101A00001A4841EA0208844228D1E86830B108281F
:101A100004D041F2272116A000F0BBF9E86826F0B7
:101A20000801084320F00406A869B0F5007F05D03E
:101A300020B141F234210EA000F0ABF96869B0F595
:101A4000807F05D020B141F2352109A000F0A1F935
:101A500027F440716869AF69084307436760C4F8B9
:101A60001880686860632662BDE8F081002C014040
:101A70002E2E2F447269766572732F53544D333274
:101A8000463178785F48414C5F4472697665722FC1
:101A90005372632F73746D3332663178785F686187
:101AA0006C5F74696D2E63002DE9F0410446006A95
:101AB0000D4620F010002062206A6768A1692A683C
:101AC00021F4E64141EA0228A96820F0200040EA1A
:101AD00001161B4884422BD1E86830B1082804D095
:101AE00041F2712117A000F054F9E96826F0800056
:101AF00040EA011020F04006A869B0F5007F05D04B
:101B000020B141F27F210FA000F043F96869B0F5E0
:101B1000807F05D020B14FF494510AA000F039F92C
:101B2000696927F4406040EA8100A96940EA8107B9
:101B30006760C4F818806868A0632662BDE8F08119
:101B4000002C01402E2E2F447269766572732F533C
:101B5000544D3332463178785F48414C5F44726966
:101B60007665722F5372632F73746D3332663178DA
:101B7000785F68616C5F74696D2E63002DE9F041D8
:101B80000446006A0D4620F480702062206A67686F
:101B9000E16920F4007021F07302296841EA02082B
:101BA000A96840EA01261B4884422BD1E86830B17D
:101BB000082804D041F2BC2117A000F0EAF8E96837
:101BC00026F4006040EA012020F48066A869B0F5A0
:101BD000007F05D020B141F2C9210FA000F0D9F853
:101BE0006869B0F5807F05D020B141F2CA210AA012
:101BF00000F0CFF8696927F4405040EA0110A96964
:101C000040EA01176760C4F81C806868E0632662D8
:101C1000BDE8F081002C01402E2E2F4472697665BC
:101C200072732F53544D3332463178785F48414CAC
:101C30005F4472697665722F5372632F73746D33CC
:101C400032663178785F68616C5F74696D2E63000D
:101C50002DE9F0410446006A0D4620F480502062D0
:101C6000206A6668E1692A6821F4E64141EA0228AF
:101C7000A96820F4005040EA01370D4884420ED193
:101C80006869B0F5807F05D020B141F2073109A025
:101C900000F07FF8696926F4804040EA81166660AA
:101CA000C4F81C80686820642762BDE8F0810000E9
:101CB000002C01402E2E2F447269766572732F53CB
:101CC000544D3332463178785F48414C5F447269F5
:101CD0007665722F5372632F73746D333266317869
:101CE000785F68616C5F74696D2E630070B5046A1B
:101CF00024F0010404628469056A0E4EB04205D0E6
:101D0000B0F1804F02D00C4EB04203D124F0030456
:101D1000144301E044F001041A0724F0F00444EAFB
:101D2000126225F00A0301F00A011943826101627F
:101D300070BD0000002C01400004004030B5046A72
:101D400024F0100404628469056A24F4407444EAAF
:101D5000022222F470444FF6FF7202EA0332224359
:101D6000A02425F0A00304EA011119438261016255
:101D700030BDFEE702E008C8121F08C1002AFAD1F0
:101D800070477047002001E001C1121F002AFBD1FB
:101D900070477047FEF7A2FBFFF757FDFFF78EFC79
:101DA000FFF702FDFFF7CCFC04210848FFF730FCE9
:101DB00008210648FFF72CFC0548016841F48051D2
:101DC00001600449081D0A680268FCE75000002011
:101DD0000C080140342C014000000000000000000D
:101DE0000102030406070809081E0008000000207D
:101DF00010000000741D0008181E000810000020CC
:101E000080040000841D0008010000001000000094
:081E10000000000000A24A04DA
:04000005080000ED02
:00000001FF
